{
  "_format": "hh-sol-artifact-1",
  "contractName": "FakeToken",
  "sourceName": "contracts/FakeToken.sol",
  "abi": [
    {
      "inputs": [
        {
          "internalType": "uint256",
          "name": "initialSupply",
          "type": "uint256"
        }
      ],
      "stateMutability": "nonpayable",
      "type": "constructor"
    },
    {
      "inputs": [
        {
          "internalType": "address",
          "name": "spender",
          "type": "address"
        },
        {
          "internalType": "uint256",
          "name": "allowance",
          "type": "uint256"
        },
        {
          "internalType": "uint256",
          "name": "needed",
          "type": "uint256"
        }
      ],
      "name": "ERC20InsufficientAllowance",
      "type": "error"
    },
    {
      "inputs": [
        {
          "internalType": "address",
          "name": "sender",
          "type": "address"
        },
        {
          "internalType": "uint256",
          "name": "balance",
          "type": "uint256"
        },
        {
          "internalType": "uint256",
          "name": "needed",
          "type": "uint256"
        }
      ],
      "name": "ERC20InsufficientBalance",
      "type": "error"
    },
    {
      "inputs": [
        {
          "internalType": "address",
          "name": "approver",
          "type": "address"
        }
      ],
      "name": "ERC20InvalidApprover",
      "type": "error"
    },
    {
      "inputs": [
        {
          "internalType": "address",
          "name": "receiver",
          "type": "address"
        }
      ],
      "name": "ERC20InvalidReceiver",
      "type": "error"
    },
    {
      "inputs": [
        {
          "internalType": "address",
          "name": "sender",
          "type": "address"
        }
      ],
      "name": "ERC20InvalidSender",
      "type": "error"
    },
    {
      "inputs": [
        {
          "internalType": "address",
          "name": "spender",
          "type": "address"
        }
      ],
      "name": "ERC20InvalidSpender",
      "type": "error"
    },
    {
      "inputs": [
        {
          "internalType": "address",
          "name": "owner",
          "type": "address"
        }
      ],
      "name": "OwnableInvalidOwner",
      "type": "error"
    },
    {
      "inputs": [
        {
          "internalType": "address",
          "name": "account",
          "type": "address"
        }
      ],
      "name": "OwnableUnauthorizedAccount",
      "type": "error"
    },
    {
      "anonymous": false,
      "inputs": [
        {
          "indexed": true,
          "internalType": "address",
          "name": "owner",
          "type": "address"
        },
        {
          "indexed": true,
          "internalType": "address",
          "name": "spender",
          "type": "address"
        },
        {
          "indexed": false,
          "internalType": "uint256",
          "name": "value",
          "type": "uint256"
        }
      ],
      "name": "Approval",
      "type": "event"
    },
    {
      "anonymous": false,
      "inputs": [
        {
          "indexed": true,
          "internalType": "address",
          "name": "previousOwner",
          "type": "address"
        },
        {
          "indexed": true,
          "internalType": "address",
          "name": "newOwner",
          "type": "address"
        }
      ],
      "name": "OwnershipTransferred",
      "type": "event"
    },
    {
      "anonymous": false,
      "inputs": [
        {
          "indexed": true,
          "internalType": "address",
          "name": "from",
          "type": "address"
        },
        {
          "indexed": true,
          "internalType": "address",
          "name": "to",
          "type": "address"
        },
        {
          "indexed": false,
          "internalType": "uint256",
          "name": "value",
          "type": "uint256"
        }
      ],
      "name": "Transfer",
      "type": "event"
    },
    {
      "inputs": [
        {
          "internalType": "address",
          "name": "_miner",
          "type": "address"
        }
      ],
      "name": "addMiner",
      "outputs": [],
      "stateMutability": "nonpayable",
      "type": "function"
    },
    {
      "inputs": [
        {
          "internalType": "address",
          "name": "owner",
          "type": "address"
        },
        {
          "internalType": "address",
          "name": "spender",
          "type": "address"
        }
      ],
      "name": "allowance",
      "outputs": [
        {
          "internalType": "uint256",
          "name": "",
          "type": "uint256"
        }
      ],
      "stateMutability": "view",
      "type": "function"
    },
    {
      "inputs": [
        {
          "internalType": "address",
          "name": "spender",
          "type": "address"
        },
        {
          "internalType": "uint256",
          "name": "value",
          "type": "uint256"
        }
      ],
      "name": "approve",
      "outputs": [
        {
          "internalType": "bool",
          "name": "",
          "type": "bool"
        }
      ],
      "stateMutability": "nonpayable",
      "type": "function"
    },
    {
      "inputs": [
        {
          "internalType": "address",
          "name": "account",
          "type": "address"
        }
      ],
      "name": "balanceOf",
      "outputs": [
        {
          "internalType": "uint256",
          "name": "",
          "type": "uint256"
        }
      ],
      "stateMutability": "view",
      "type": "function"
    },
    {
      "inputs": [],
      "name": "decimals",
      "outputs": [
        {
          "internalType": "uint8",
          "name": "",
          "type": "uint8"
        }
      ],
      "stateMutability": "view",
      "type": "function"
    },
    {
      "inputs": [],
      "name": "getListMiner",
      "outputs": [
        {
          "internalType": "address[]",
          "name": "",
          "type": "address[]"
        }
      ],
      "stateMutability": "view",
      "type": "function"
    },
    {
      "inputs": [
        {
          "internalType": "uint256",
          "name": "",
          "type": "uint256"
        }
      ],
      "name": "miner",
      "outputs": [
        {
          "internalType": "address",
          "name": "",
          "type": "address"
        }
      ],
      "stateMutability": "view",
      "type": "function"
    },
    {
      "inputs": [],
      "name": "mintToken",
      "outputs": [
        {
          "internalType": "uint256",
          "name": "",
          "type": "uint256"
        }
      ],
      "stateMutability": "nonpayable",
      "type": "function"
    },
    {
      "inputs": [],
      "name": "name",
      "outputs": [
        {
          "internalType": "string",
          "name": "",
          "type": "string"
        }
      ],
      "stateMutability": "view",
      "type": "function"
    },
    {
      "inputs": [],
      "name": "owner",
      "outputs": [
        {
          "internalType": "address",
          "name": "",
          "type": "address"
        }
      ],
      "stateMutability": "view",
      "type": "function"
    },
    {
      "inputs": [],
      "name": "renounceOwnership",
      "outputs": [],
      "stateMutability": "nonpayable",
      "type": "function"
    },
    {
      "inputs": [],
      "name": "symbol",
      "outputs": [
        {
          "internalType": "string",
          "name": "",
          "type": "string"
        }
      ],
      "stateMutability": "view",
      "type": "function"
    },
    {
      "inputs": [],
      "name": "totalSupply",
      "outputs": [
        {
          "internalType": "uint256",
          "name": "",
          "type": "uint256"
        }
      ],
      "stateMutability": "view",
      "type": "function"
    },
    {
      "inputs": [],
      "name": "totalToken",
      "outputs": [
        {
          "internalType": "uint256",
          "name": "",
          "type": "uint256"
        }
      ],
      "stateMutability": "view",
      "type": "function"
    },
    {
      "inputs": [],
      "name": "totalTokenCanBeMined",
      "outputs": [
        {
          "internalType": "uint256",
          "name": "",
          "type": "uint256"
        }
      ],
      "stateMutability": "view",
      "type": "function"
    },
    {
      "inputs": [
        {
          "internalType": "address",
          "name": "to",
          "type": "address"
        },
        {
          "internalType": "uint256",
          "name": "value",
          "type": "uint256"
        }
      ],
      "name": "transfer",
      "outputs": [
        {
          "internalType": "bool",
          "name": "",
          "type": "bool"
        }
      ],
      "stateMutability": "nonpayable",
      "type": "function"
    },
    {
      "inputs": [
        {
          "internalType": "address",
          "name": "from",
          "type": "address"
        },
        {
          "internalType": "address",
          "name": "to",
          "type": "address"
        },
        {
          "internalType": "uint256",
          "name": "value",
          "type": "uint256"
        }
      ],
      "name": "transferFrom",
      "outputs": [
        {
          "internalType": "bool",
          "name": "",
          "type": "bool"
        }
      ],
      "stateMutability": "nonpayable",
      "type": "function"
    },
    {
      "inputs": [
        {
          "internalType": "address",
          "name": "newOwner",
          "type": "address"
        }
      ],
      "name": "transferOwnership",
      "outputs": [],
      "stateMutability": "nonpayable",
      "type": "function"
    }
  ],
  "bytecode": "0x608060405234801561001057600080fd5b5060405161228d38038061228d833981810160405281019061003291906105b3565b336040518060400160405280600981526020017f46616b65546f6b656e00000000000000000000000000000000000000000000008152506040518060400160405280600281526020017f465400000000000000000000000000000000000000000000000000000000000081525081600390816100ae9190610826565b5080600490816100be9190610826565b505050600073ffffffffffffffffffffffffffffffffffffffff168173ffffffffffffffffffffffffffffffffffffffff16036101335760006040517f1e4fbdf700000000000000000000000000000000000000000000000000000000815260040161012a9190610939565b60405180910390fd5b6101428161020560201b60201c565b5061016b33600a6007846101569190610983565b61016091906109f4565b6102cb60201b60201c565b80600681905550600a6007826101819190610983565b61018b91906109f4565b816101969190610a25565b6007819055506008339080600181540180825580915050600190039060005260206000200160009091909190916101000a81548173ffffffffffffffffffffffffffffffffffffffff021916908373ffffffffffffffffffffffffffffffffffffffff16021790555050610aee565b6000600560009054906101000a900473ffffffffffffffffffffffffffffffffffffffff16905081600560006101000a81548173ffffffffffffffffffffffffffffffffffffffff021916908373ffffffffffffffffffffffffffffffffffffffff1602179055508173ffffffffffffffffffffffffffffffffffffffff168173ffffffffffffffffffffffffffffffffffffffff167f8be0079c531659141344cd1fd0a4f28419497f9722a3daafe3b4186f6b6457e060405160405180910390a35050565b600073ffffffffffffffffffffffffffffffffffffffff168273ffffffffffffffffffffffffffffffffffffffff160361033d5760006040517fec442f050000000000000000000000000000000000000000000000000000000081526004016103349190610939565b60405180910390fd5b61034f6000838361035360201b60201c565b5050565b600073ffffffffffffffffffffffffffffffffffffffff168373ffffffffffffffffffffffffffffffffffffffff16036103a55780600260008282546103999190610a59565b92505081905550610478565b60008060008573ffffffffffffffffffffffffffffffffffffffff1673ffffffffffffffffffffffffffffffffffffffff16815260200190815260200160002054905081811015610431578381836040517fe450d38c00000000000000000000000000000000000000000000000000000000815260040161042893929190610a9c565b60405180910390fd5b8181036000808673ffffffffffffffffffffffffffffffffffffffff1673ffffffffffffffffffffffffffffffffffffffff16815260200190815260200160002081905550505b600073ffffffffffffffffffffffffffffffffffffffff168273ffffffffffffffffffffffffffffffffffffffff16036104c1578060026000828254039250508190555061050e565b806000808473ffffffffffffffffffffffffffffffffffffffff1673ffffffffffffffffffffffffffffffffffffffff168152602001908152602001600020600082825401925050819055505b8173ffffffffffffffffffffffffffffffffffffffff168373ffffffffffffffffffffffffffffffffffffffff167fddf252ad1be2c89b69c2b068fc378daa952ba7f163c4a11628f55a4df523b3ef8360405161056b9190610ad3565b60405180910390a3505050565b600080fd5b6000819050919050565b6105908161057d565b811461059b57600080fd5b50565b6000815190506105ad81610587565b92915050565b6000602082840312156105c9576105c8610578565b5b60006105d78482850161059e565b91505092915050565b600081519050919050565b7f4e487b7100000000000000000000000000000000000000000000000000000000600052604160045260246000fd5b7f4e487b7100000000000000000000000000000000000000000000000000000000600052602260045260246000fd5b6000600282049050600182168061066157607f821691505b6020821081036106745761067361061a565b5b50919050565b60008190508160005260206000209050919050565b60006020601f8301049050919050565b600082821b905092915050565b6000600883026106dc7fffffffffffffffffffffffffffffffffffffffffffffffffffffffffffffffff8261069f565b6106e6868361069f565b95508019841693508086168417925050509392505050565b6000819050919050565b600061072361071e6107198461057d565b6106fe565b61057d565b9050919050565b6000819050919050565b61073d83610708565b6107516107498261072a565b8484546106ac565b825550505050565b600090565b610766610759565b610771818484610734565b505050565b5b818110156107955761078a60008261075e565b600181019050610777565b5050565b601f8211156107da576107ab8161067a565b6107b48461068f565b810160208510156107c3578190505b6107d76107cf8561068f565b830182610776565b50505b505050565b600082821c905092915050565b60006107fd600019846008026107df565b1980831691505092915050565b600061081683836107ec565b9150826002028217905092915050565b61082f826105e0565b67ffffffffffffffff811115610848576108476105eb565b5b6108528254610649565b61085d828285610799565b600060209050601f831160018114610890576000841561087e578287015190505b610888858261080a565b8655506108f0565b601f19841661089e8661067a565b60005b828110156108c6578489015182556001820191506020850194506020810190506108a1565b868310156108e357848901516108df601f8916826107ec565b8355505b6001600288020188555050505b505050505050565b600073ffffffffffffffffffffffffffffffffffffffff82169050919050565b6000610923826108f8565b9050919050565b61093381610918565b82525050565b600060208201905061094e600083018461092a565b92915050565b7f4e487b7100000000000000000000000000000000000000000000000000000000600052601160045260246000fd5b600061098e8261057d565b91506109998361057d565b92508282026109a78161057d565b915082820484148315176109be576109bd610954565b5b5092915050565b7f4e487b7100000000000000000000000000000000000000000000000000000000600052601260045260246000fd5b60006109ff8261057d565b9150610a0a8361057d565b925082610a1a57610a196109c5565b5b828204905092915050565b6000610a308261057d565b9150610a3b8361057d565b9250828203905081811115610a5357610a52610954565b5b92915050565b6000610a648261057d565b9150610a6f8361057d565b9250828201905080821115610a8757610a86610954565b5b92915050565b610a968161057d565b82525050565b6000606082019050610ab1600083018661092a565b610abe6020830185610a8d565b610acb6040830184610a8d565b949350505050565b6000602082019050610ae86000830184610a8d565b92915050565b61179080610afd6000396000f3fe608060405234801561001057600080fd5b50600436106101165760003560e01c806370a08231116100a2578063a9059cbb11610071578063a9059cbb146102d5578063dd62ed3e14610305578063f257083c14610335578063f2fde38b14610353578063f3982e5e1461036f57610116565b806370a082311461025f578063715018a61461028f5780638da5cb5b1461029957806395d89b41146102b757610116565b806323b872dd116100e957806323b872dd146101a5578063313ce567146101d5578063324e20c0146101f3578063626be5671461022357806369e489071461024157610116565b806306fdde031461011b578063095ea7b31461013957806318160ddd146101695780632004ffd914610187575b600080fd5b61012361038b565b6040516101309190611166565b60405180910390f35b610153600480360381019061014e9190611221565b61041d565b604051610160919061127c565b60405180910390f35b610171610440565b60405161017e91906112a6565b60405180910390f35b61018f61044a565b60405161019c91906112a6565b60405180910390f35b6101bf60048036038101906101ba91906112c1565b61050a565b6040516101cc919061127c565b60405180910390f35b6101dd610539565b6040516101ea9190611330565b60405180910390f35b61020d6004803603810190610208919061134b565b610542565b60405161021a9190611387565b60405180910390f35b61022b610581565b60405161023891906112a6565b60405180910390f35b610249610587565b60405161025691906112a6565b60405180910390f35b610279600480360381019061027491906113a2565b61058d565b60405161028691906112a6565b60405180910390f35b6102976105d5565b005b6102a16105e9565b6040516102ae9190611387565b60405180910390f35b6102bf610613565b6040516102cc9190611166565b60405180910390f35b6102ef60048036038101906102ea9190611221565b6106a5565b6040516102fc919061127c565b60405180910390f35b61031f600480360381019061031a91906113cf565b6106c8565b60405161032c91906112a6565b60405180910390f35b61033d61074f565b60405161034a91906114cd565b60405180910390f35b61036d600480360381019061036891906113a2565b6107dd565b005b610389600480360381019061038491906113a2565b610863565b005b60606003805461039a9061151e565b80601f01602080910402602001604051908101604052809291908181526020018280546103c69061151e565b80156104135780601f106103e857610100808354040283529160200191610413565b820191906000526020600020905b8154815290600101906020018083116103f657829003601f168201915b5050505050905090565b600080610428610969565b9050610435818585610971565b600191505092915050565b6000600254905090565b6000600654610457610440565b10610497576040517f08c379a000000000000000000000000000000000000000000000000000000000815260040161048e9061159b565b60405180910390fd5b6000605a60065460646104a8610440565b6104b291906115ea565b6104bc919061165b565b11156104de576104ca610440565b6006546104d7919061168c565b90506104f0565b60056007546104ed919061165b565b90505b6104fa3382610983565b61050333610863565b8091505090565b600080610515610969565b9050610522858285610a05565b61052d858585610a99565b60019150509392505050565b60006012905090565b6008818154811061055257600080fd5b906000526020600020016000915054906101000a900473ffffffffffffffffffffffffffffffffffffffff1681565b60065481565b60075481565b60008060008373ffffffffffffffffffffffffffffffffffffffff1673ffffffffffffffffffffffffffffffffffffffff168152602001908152602001600020549050919050565b6105dd610b8d565b6105e76000610c14565b565b6000600560009054906101000a900473ffffffffffffffffffffffffffffffffffffffff16905090565b6060600480546106229061151e565b80601f016020809104026020016040519081016040528092919081815260200182805461064e9061151e565b801561069b5780601f106106705761010080835404028352916020019161069b565b820191906000526020600020905b81548152906001019060200180831161067e57829003601f168201915b5050505050905090565b6000806106b0610969565b90506106bd818585610a99565b600191505092915050565b6000600160008473ffffffffffffffffffffffffffffffffffffffff1673ffffffffffffffffffffffffffffffffffffffff16815260200190815260200160002060008373ffffffffffffffffffffffffffffffffffffffff1673ffffffffffffffffffffffffffffffffffffffff16815260200190815260200160002054905092915050565b606060088054806020026020016040519081016040528092919081815260200182805480156107d357602002820191906000526020600020905b8160009054906101000a900473ffffffffffffffffffffffffffffffffffffffff1673ffffffffffffffffffffffffffffffffffffffff1681526020019060010190808311610789575b5050505050905090565b6107e5610b8d565b600073ffffffffffffffffffffffffffffffffffffffff168173ffffffffffffffffffffffffffffffffffffffff16036108575760006040517f1e4fbdf700000000000000000000000000000000000000000000000000000000815260040161084e9190611387565b60405180910390fd5b61086081610c14565b50565b6000805b6008805490508110156108fb578273ffffffffffffffffffffffffffffffffffffffff166008828154811061089f5761089e6116c0565b5b9060005260206000200160009054906101000a900473ffffffffffffffffffffffffffffffffffffffff1673ffffffffffffffffffffffffffffffffffffffff16036108ee57600191506108fb565b8080600101915050610867565b5080610965576008829080600181540180825580915050600190039060005260206000200160009091909190916101000a81548173ffffffffffffffffffffffffffffffffffffffff021916908373ffffffffffffffffffffffffffffffffffffffff1602179055505b5050565b600033905090565b61097e8383836001610cda565b505050565b600073ffffffffffffffffffffffffffffffffffffffff168273ffffffffffffffffffffffffffffffffffffffff16036109f55760006040517fec442f050000000000000000000000000000000000000000000000000000000081526004016109ec9190611387565b60405180910390fd5b610a0160008383610eb1565b5050565b6000610a1184846106c8565b90507fffffffffffffffffffffffffffffffffffffffffffffffffffffffffffffffff8114610a935781811015610a83578281836040517ffb8f41b2000000000000000000000000000000000000000000000000000000008152600401610a7a939291906116ef565b60405180910390fd5b610a9284848484036000610cda565b5b50505050565b600073ffffffffffffffffffffffffffffffffffffffff168373ffffffffffffffffffffffffffffffffffffffff1603610b0b5760006040517f96c6fd1e000000000000000000000000000000000000000000000000000000008152600401610b029190611387565b60405180910390fd5b600073ffffffffffffffffffffffffffffffffffffffff168273ffffffffffffffffffffffffffffffffffffffff1603610b7d5760006040517fec442f05000000000000000000000000000000000000000000000000000000008152600401610b749190611387565b60405180910390fd5b610b88838383610eb1565b505050565b610b95610969565b73ffffffffffffffffffffffffffffffffffffffff16610bb36105e9565b73ffffffffffffffffffffffffffffffffffffffff1614610c1257610bd6610969565b6040517f118cdaa7000000000000000000000000000000000000000000000000000000008152600401610c099190611387565b60405180910390fd5b565b6000600560009054906101000a900473ffffffffffffffffffffffffffffffffffffffff16905081600560006101000a81548173ffffffffffffffffffffffffffffffffffffffff021916908373ffffffffffffffffffffffffffffffffffffffff1602179055508173ffffffffffffffffffffffffffffffffffffffff168173ffffffffffffffffffffffffffffffffffffffff167f8be0079c531659141344cd1fd0a4f28419497f9722a3daafe3b4186f6b6457e060405160405180910390a35050565b600073ffffffffffffffffffffffffffffffffffffffff168473ffffffffffffffffffffffffffffffffffffffff1603610d4c5760006040517fe602df05000000000000000000000000000000000000000000000000000000008152600401610d439190611387565b60405180910390fd5b600073ffffffffffffffffffffffffffffffffffffffff168373ffffffffffffffffffffffffffffffffffffffff1603610dbe5760006040517f94280d62000000000000000000000000000000000000000000000000000000008152600401610db59190611387565b60405180910390fd5b81600160008673ffffffffffffffffffffffffffffffffffffffff1673ffffffffffffffffffffffffffffffffffffffff16815260200190815260200160002060008573ffffffffffffffffffffffffffffffffffffffff1673ffffffffffffffffffffffffffffffffffffffff168152602001908152602001600020819055508015610eab578273ffffffffffffffffffffffffffffffffffffffff168473ffffffffffffffffffffffffffffffffffffffff167f8c5be1e5ebec7d5bd14f71427d1e84f3dd0314c0f7b2291e5b200ac8c7c3b92584604051610ea291906112a6565b60405180910390a35b50505050565b600073ffffffffffffffffffffffffffffffffffffffff168373ffffffffffffffffffffffffffffffffffffffff1603610f03578060026000828254610ef79190611726565b92505081905550610fd6565b60008060008573ffffffffffffffffffffffffffffffffffffffff1673ffffffffffffffffffffffffffffffffffffffff16815260200190815260200160002054905081811015610f8f578381836040517fe450d38c000000000000000000000000000000000000000000000000000000008152600401610f86939291906116ef565b60405180910390fd5b8181036000808673ffffffffffffffffffffffffffffffffffffffff1673ffffffffffffffffffffffffffffffffffffffff16815260200190815260200160002081905550505b600073ffffffffffffffffffffffffffffffffffffffff168273ffffffffffffffffffffffffffffffffffffffff160361101f578060026000828254039250508190555061106c565b806000808473ffffffffffffffffffffffffffffffffffffffff1673ffffffffffffffffffffffffffffffffffffffff168152602001908152602001600020600082825401925050819055505b8173ffffffffffffffffffffffffffffffffffffffff168373ffffffffffffffffffffffffffffffffffffffff167fddf252ad1be2c89b69c2b068fc378daa952ba7f163c4a11628f55a4df523b3ef836040516110c991906112a6565b60405180910390a3505050565b600081519050919050565b600082825260208201905092915050565b60005b838110156111105780820151818401526020810190506110f5565b60008484015250505050565b6000601f19601f8301169050919050565b6000611138826110d6565b61114281856110e1565b93506111528185602086016110f2565b61115b8161111c565b840191505092915050565b60006020820190508181036000830152611180818461112d565b905092915050565b600080fd5b600073ffffffffffffffffffffffffffffffffffffffff82169050919050565b60006111b88261118d565b9050919050565b6111c8816111ad565b81146111d357600080fd5b50565b6000813590506111e5816111bf565b92915050565b6000819050919050565b6111fe816111eb565b811461120957600080fd5b50565b60008135905061121b816111f5565b92915050565b6000806040838503121561123857611237611188565b5b6000611246858286016111d6565b92505060206112578582860161120c565b9150509250929050565b60008115159050919050565b61127681611261565b82525050565b6000602082019050611291600083018461126d565b92915050565b6112a0816111eb565b82525050565b60006020820190506112bb6000830184611297565b92915050565b6000806000606084860312156112da576112d9611188565b5b60006112e8868287016111d6565b93505060206112f9868287016111d6565b925050604061130a8682870161120c565b9150509250925092565b600060ff82169050919050565b61132a81611314565b82525050565b60006020820190506113456000830184611321565b92915050565b60006020828403121561136157611360611188565b5b600061136f8482850161120c565b91505092915050565b611381816111ad565b82525050565b600060208201905061139c6000830184611378565b92915050565b6000602082840312156113b8576113b7611188565b5b60006113c6848285016111d6565b91505092915050565b600080604083850312156113e6576113e5611188565b5b60006113f4858286016111d6565b9250506020611405858286016111d6565b9150509250929050565b600081519050919050565b600082825260208201905092915050565b6000819050602082019050919050565b611444816111ad565b82525050565b6000611456838361143b565b60208301905092915050565b6000602082019050919050565b600061147a8261140f565b611484818561141a565b935061148f8361142b565b8060005b838110156114c05781516114a7888261144a565b97506114b283611462565b925050600181019050611493565b5085935050505092915050565b600060208201905081810360008301526114e7818461146f565b905092915050565b7f4e487b7100000000000000000000000000000000000000000000000000000000600052602260045260246000fd5b6000600282049050600182168061153657607f821691505b602082108103611549576115486114ef565b5b50919050565b7f546f6b656e20686173206265656e206d696e6564000000000000000000000000600082015250565b60006115856014836110e1565b91506115908261154f565b602082019050919050565b600060208201905081810360008301526115b481611578565b9050919050565b7f4e487b7100000000000000000000000000000000000000000000000000000000600052601160045260246000fd5b60006115f5826111eb565b9150611600836111eb565b925082820261160e816111eb565b91508282048414831517611625576116246115bb565b5b5092915050565b7f4e487b7100000000000000000000000000000000000000000000000000000000600052601260045260246000fd5b6000611666826111eb565b9150611671836111eb565b9250826116815761168061162c565b5b828204905092915050565b6000611697826111eb565b91506116a2836111eb565b92508282039050818111156116ba576116b96115bb565b5b92915050565b7f4e487b7100000000000000000000000000000000000000000000000000000000600052603260045260246000fd5b60006060820190506117046000830186611378565b6117116020830185611297565b61171e6040830184611297565b949350505050565b6000611731826111eb565b915061173c836111eb565b9250828201905080821115611754576117536115bb565b5b9291505056fea26469706673582212203f0044286945876a89707189a93144065881567a654d3ea96bb4feb82667d4e364736f6c634300081b0033",
  "linkReferences": {},
  "deployedLinkReferences": {}
}